:020000040800F2
:1000000000000520B10500080106000801060008EF
:1000100001060008010600080106000800000000B3
:10002000000000000000000000000000C19800086F
:10003000010600080000000061990008B9260008C8
:100040000106000801060008010600080106000874
:100050000106000801060008010600080106000864
:100060000106000801060008010600089929000899
:10007000A9290008B9290008C9290008D9290008B8
:10008000E9290008F929000801060008010600080E
:100090000106000801060008010600080106000824
:1000A0000106000801060008010600080106000814
:1000B0000106000801060008010600080106000804
:1000C00001060008010600080106000801060008F4
:1000D00001060008010600080106000801060008E4
:1000E00001060008010600080106000801060008D4
:1000F000010600080106000801060008092A000898
:1001000001060008010600080106000801060008B3
:100110000106000801060008C126000801060008C3
:10012000192A0008292A0008392A0008492A000843
:10013000592A0008D1260008010600080106000817
:10014000010600080106000801060008E126000873
:10015000692A0008792A0008892A0008010600088F
:100160000106000801060008010600080106000853
:100170000106000801060008010600080000000052
:100180000106000801060008010600080106000833
:100190000106000801060008010600080106000823
:1001A000992A000801060008F12600080106000847
:1001B0000106000801060008010600080106000803
:0801C000010600080106000819
:1001D00010B5054C237833B9044B13B10448AFF381
:1001E00000800123237010BD0802002000000000E1
:1001F000B473010808B5034B1BB103490348AFF3BF
:10020000008008BD000000000C020020B47301084B
:1002100053B94AB9002908BF00281CBF4FF0FF316D
:100220004FF0FF3000F072B9ADF1080C6DE904CE6B
:1002300000F006F8DDF804E0DDE9022304B07047C1
:100240002DE9F047089E04468846002B4BD18A4290
:10025000154667D9B2FA82F24AB1C2F1200701FA13
:1002600002F320FA07F7954047EA030894404FEA63
:10027000154E230CB8FBFEF71FFA85FC0EFB178802
:1002800043EA084307FB0CF1994209D9EB1807F13F
:10029000FF3080F01B81994240F21881023F2B44CD
:1002A0005B1AA4B2B3FBFEF00EFB103344EA034426
:1002B00000FB0CFCA44509D92C1900F1FF3380F098
:1002C0000781A44540F2048102382C4440EA0740EB
:1002D000A4EB0C0400271EB1D4400023C6E9004360
:1002E0003946BDE8F0878B4209D9002E00F0EB803B
:1002F0000027C6E9000138463946BDE8F087B3FA61
:1003000083F7002F47D18B4202D3824200F2FA805A
:10031000841A61EB030301209846002EE0D0C6E961
:100320000048DDE702B9FFDEB2FA82F2002A40F0AF
:100330008F80491B4FEA154E1FFA85F80127B1FB44
:10034000FEFC230C0EFB1C1143EA014308FB0CF1DD
:10035000994207D9EB180CF1FF3002D2994200F212
:10036000CD808446591AA3B2B1FBFEF00EFB1014E7
:1003700043EA044408FB00F8A04507D92C1900F112
:10038000FF3302D2A04500F2B6801846A4EB080461
:1003900040EA0C409FE7C7F1200CBB4022FA0CFE5C
:1003A0004EEA030E01FA07F420FA0CF521FA0CF3D9
:1003B0004FEA1E482543B3FBF8F92C0C08FB193310
:1003C0001FFA8EFA44EA034309FB0AF49C4202FA3C
:1003D00007F200FA07F10BD91EEB030309F1FF3016
:1003E00080F087809C4240F28480A9F10209734426
:1003F0001B1BADB2B3FBF8F008FB103345EA034416
:1004000000FB0AFAA24508D91EEB040400F1FF33F1
:100410006BD2A24569D90238744440EA0940A0FB76
:100420000289A4EB0A044C45C2464B4654D351D032
:10043000002E69D0B1EB0A0564EB030404FA0CFC4E
:10044000FD40FC404CEA0505C6E90054002747E79B
:10045000C2F1200320FA03F7954001FA02F021FAD5
:1004600003F34FEA154E3843010CB3FBFEF71FFAB6
:1004700085F80EFB173341EA034107FB08F38B4273
:1004800004FA02F407D9691807F1FF3C2FD28B4216
:100490002DD9023F2944CB1A81B2B3FBFEF00EFBEB
:1004A000103341EA034100FB08F38B4207D9691876
:1004B00000F1FF3C17D28B4215D902382944C91AE2
:1004C00040EA07473BE73746304609E70746E7E695
:1004D0001846FBE64145ABD2B8EB020A69EB0E02C7
:1004E00001381346A4E76046E9E7184695E76746F2
:1004F000D1E781467CE702382C4447E7ACF1020C97
:100500002B442FE7384608E73746E9E6704700BF37
:1005100001F0FF01102A2BDB10F0070F08D010F8B4
:10052000013B013A8B422DD010F0070F42B3F6D1B8
:10053000F0B441EA012141EA014122F007047FF0D1
:1005400000070023F0E80256083C85EA010586EA28
:10055000010685FA47F5A3FA87F586FA47F6A5FA64
:1005600087F68EB9EED1F0BC01F0FF0102F0070270
:1005700032B110F8013B013A83EA010313B1F8D11B
:100580000020704701387047002D06BF35460338FC
:10059000073815F0010F07D1013015F4807F02BF35
:1005A000013015F4C03F0130F0BC0138704700BF86
:1005B000DFF834D0002103E00C4B5B58435004318A
:1005C0000B480C4B42189A42F6D30B4A02E0002328
:1005D00042F8043B094B9A42F9D302F0D9FB15F0DB
:1005E0001BFE01F077FA704700000520B4A5010852
:1005F0000000002008020020080200203C02012028
:10060000FEE7000008B513460A460146024806F018
:1006100077FA00B1012008BDE0BE002008B51346FE
:100620000A460146024806F0F3FA00B1012008BD6F
:10063000E0BE002008B5034806F0BCFD043818BF32
:10064000012008BDE0BE002008B50146014806F0C3
:100650004FFD08BDE0BE002008B501F055FB08BD08
:1006600000B583B001238DF8073000F033FA10B9DC
:1006700000238DF807309DF8070003B05DF804FBF8
:1006800010B5FFF7EDFF012802D00224204610BD6F
:10069000074806F014FD04460028F7D14FF4006126
:1006A000034806F037FD0028F0D00124EEE700BF34
:1006B000E0BE00202DE9F047334803F0D9F90028C7
:1006C0005ED1314B998FD3F8409029B94FF0000893
:1006D0002D4B1B6B00213AE0032204200FF0D4FBCA
:1006E00080460028F4D0284B1F6B8246002421E06E
:1006F000DAF8040040F2F452121B09EB0401304412
:1007000015F0CDFDFF68D7F80890A5F2F452361B1E
:1007100006F2F4560024A51840F2F4539D42E7D89F
:10072000DAF8040009EB0401304415F0B8FDDAF8FA
:1007300000A02C46BAF1000FCAD0BAF80A20002651
:10074000E9E71A6842F000421A60DB6801310E4A9C
:10075000926B8A42F5D80C4B00229A631B6841F2D7
:1007600014029A5812F0800F07D041F2140280212F
:10077000995041F20802002199504046BDE8F087A7
:100780004FF00008F9E700BF649F002038B5054628
:100790004FF0FF310B4B186808F0BEFD0028F7D171
:1007A00001E0002CF4D02846FFF784FF044600281F
:1007B000F7D02B69294698470028F2D020460FF041
:1007C000F9FAEEE7240200202DE9F84F8B462C4B76
:1007D000DE6AD6F808A000242746BBF1000F32D00D
:1007E0003368002B35DBBBF80A90002504EB0908C1
:1007F00040F2F453984519D9DBF8041040F2F45252
:10080000121B29440AEB040015F049FDF668336811
:10081000002B21DBD6F808A0A8F2F4592D1B05F215
:10082000F4553F1B07F2F4570024DFE7DBF8041010
:100830004A4629440AEB040015F031FD4F44DBF829
:1008400000B04446C9E739460D4803F081F800205E
:1008500004E06FF0070001E06FF00700084B1B6831
:1008600041F214029A5812F0200F07D041F21402FC
:100870002021995041F2040200219950BDE8F88FDF
:10088000649F0020F0B58BB00446002309933D48D7
:100890003D4A02600122426003828DF81C308021B3
:1008A0008DF81D10E1218DF81E108DF81F308DF888
:1008B00020308DF8213007A941618261C3614FF476
:1008C0000003036203F0DEF928B994F82F3043F0F7
:1008D000040384F82F302B4D04232C4A2C4928463E
:1008E00002F0C7FF04232B4A2B49284602F0FAFFE7
:1008F000062384F828306B691A7884F829205A78FE
:1009000084F82A209A7884F82B20DA7884F82C202E
:100910001A7984F82D205B7984F82E3040F2DC536C
:10092000E38494F82F3043F00A0384F82F300AA8A8
:10093000002340F8103D012108F0D8FC174B186047
:1009400001AE174F0FCF0FC63B683360214601A899
:1009500008F045FC284603F0BFFA09AA0B212846F7
:1009600003F01AF9099A42F00B0209920B2128466A
:1009700003F04EF909AA0B21284603F00DF90BB03C
:10098000F0BD00BF649F002000800240AC9F0020AB
:100990009486002014870020E49E0020240200207A
:1009A000CC7301080268284B9A4200D07047F0B51A
:1009B00089B0A3F590431A6B42F000721A631A6B68
:1009C00002F000720092009A1A6B42F080621A6381
:1009D0001A6B02F080620192019A1A6B42F0006277
:1009E0001A631B6B03F000630293029B4FF4D04326
:1009F00003930227049700240594032606960B25EB
:100A0000079503A9114803F089FA32230393049749
:100A100005940696079503A90D4803F07FFA8623EF
:100A20000393049705940696079503A9094803F0D4
:100A300075FA224605213D2002F088FB3D2002F098
:100A4000B7FB09B0F0BD00BF0080024000180240B3
:100A5000000802400000024008B5024B186808F088
:100A600095FC08BD2402002010B5044670B1732324
:100A700084F83030742384F83130084B6361084BBC
:100A8000A3612046FFF7FEFE002010BD054B40F29B
:100A90003E220549054815F0BDFCE8E735E20008AF
:100AA000C9070008087601083C7601084C76010861
:100AB00008B501F0B3FE08BD08B50349034808F0C6
:100AC00065FB034B187008BD80B70020FC7301085C
:100AD0007CB7002008B54FF40051044803F00EFB2A
:100AE00008B9002008BD0120FCE700BF0008024053
:100AF000704770477047000030B585B00021084648
:100B000013F082FD114900200860114A1060114B5A
:100B10001860114C114D0295114D01950090204621
:100B20000EF0EEFF20460FF02BF894F82F3013F064
:100B3000040F07D108480FF03BF807480CF026FED9
:100B400005B030BD20460FF021F8F6E71CBC0020B0
:100B500020BC002024BC0020E8BB00205145010837
:100B6000690A0008054B064A1A6000225A609A601A
:100B7000DA601A615A619A61704700BFE0BE0020D6
:100B8000002C01402DE9F04F91B09A4B1A6B42F0C6
:100B900010021A631A6B02F010020092009A1A6B8C
:100BA00042F040021A631A6B02F040020192019A6D
:100BB0001A6B42F002021A631A6B02F002020292EE
:100BC000029A1A6B42F008021A631A6B02F00802CA
:100BD0000392039A1A6B42F004021A631A6B02F032
:100BE00004020492049A1A6B42F001021A631A6B0F
:100BF00002F001020592059A1A6B42F400721A6320
:100C00001A6B02F400720692069A1A6B42F4807212
:100C10001A631A6B02F480720792079A1A6B42F4F5
:100C200080621A631A6B02F480620892089A1A6B47
:100C300042F020021A631A6B02F020020992099A0C
:100C40001A6B42F080021A631B6B03F080030A9355
:100C50000A9B01222021684803F057FA00220C2148
:100C6000664803F052FA01220821654803F04DFA64
:100C700001224FF48051614803F047FA00224FF4FB
:100C80000051604803F041FA0022C8215E4803F099
:100C90003CFA4FF0080ACDF82CA000240C940D94D7
:100CA0000BA95A4803F03AF943F623430B934FF04C
:100CB0000208CDF830800D9403270E970A260F9670
:100CC0000BA9534803F02AF94FF480530B930C946B
:100CD0000D940BA94F4803F021F940230B93DFF843
:100CE00040B1CDF830B00D940BA9434803F016F98C
:100CF00020230B9301250C950D940E940BA93E48CF
:100D000003F00CF941F20C030B930C950D940E9427
:100D10000BA93A4803F002F94FF40059CDF82C9092
:100D20000C940D940BA93C4803F0F8F8CDF82CA0D6
:100D30000C950D940E940BA9314803F0EFF84FF089
:100D4000100ACDF82CA00C940D940BA92A4803F09E
:100D5000E5F848F204030B930C940D940BA9294871
:100D600003F0DCF8CDF82C900C950D940E940BA9A3
:100D7000244803F0D3F8CDF82C90CDF830B00D9482
:100D80000BA91E4803F0CAF8CDF82CA0CDF830808E
:100D90000D940E970F960BA91A4803F0BFF8C823BD
:100DA0000B930C950D940E940BA9174803F0B6F80D
:100DB00005230B93CDF830800D940E970F960BA959
:100DC000154803F0ABF804230B930C940D940BA976
:100DD0000D4803F0A3F828230B93CDF830800D9431
:100DE0000E970F960BA90D4803F098F811B0BDE8C7
:100DF000F08F00BF00380240000C0240002002408B
:100E000000280240001C024000180240001002406E
:100E1000000402400024024000080240000002409A
:100E200000001210F0B52DED028BADF2545DFFF70E
:100E300043FE01F04FFEFFF75FFE70E04C4815F0F7
:100E4000E9FA77E0214606A815F0A3FB494906A870
:100E500015F0BAFB00263AE006EB86029300014645
:100E600013AAD01815F095FB22A815F044F80446F3
:100E7000414B83FB0023C517C5EB631507EE900AB2
:100E8000B8EEE77ADFED3D7A87EE278A07EE105A53
:100E9000B8EEC77A38EE478A28EE278ABDEEC88AB0
:100EA0002CA815F028F818A815F025F840A815F07A
:100EB00022F827AB009318EE103A2A463049204614
:100EC00015F004FB2B49002015F07EFB01360028AD
:100ED000C2D12C4B1B68986815F0C2F840F2FF3263
:100EE00054A938460FF068FD031E15DD54A80022F2
:100EF000C254254915F068FB0446002CA6D00622F2
:100F00002249204615F04DFB00289BD01E490020A9
:100F100015F05AFB0446F0E738460FF08DFB062229
:100F2000012102200FF01EFE071E87DB39461848FC
:100F300015F070FA4FF03033029303930493059346
:100F400002238DF809304DF603100BF0F9FAADF8D5
:100F50000A0003A90F480DF099FD102202A9384696
:100F60000FF0A6FB03220C4938460FF03FFEB5E711
:100F70007C760108D87601081F85EB510000C84235
:100F8000DC76010838000020CC760108D076010814
:100F9000AC760108BC760108C876010808B502687D
:100FA000034B9A4200D008BD01F0F8FBFBE700BFFD
:100FB00000100040FEE7000000B585B01648174B52
:100FC00003604FF4803343600023836003618361D7
:100FD0000362C362124A8262C3600122C261036378
:100FE000426101F0A1FF68B904230093012301933A
:100FF000002302936946084801F0C0FF38B905B0E4
:101000005DF804FB4FF4B9710648FFF7D3FF4FF4C6
:10101000BE710448FFF7CEFF8CC0002000220140C3
:101020000100000FF476010808B50948094B036078
:10103000002303714371436183610123036202F062
:10104000E9F800B908BD40F28D110348FFF7B2FF7F
:10105000BCBE002000300240F476010808B50C4800
:101060000C4B0360002343608360C36003614361F2
:101070008361036243628362C362036302F036F9F1
:1010800000B908BD4FF4D2710348FFF793FF00BFCA
:10109000D4C0002000000550F476010808B50F48C0
:1010A0000F4B0360002343608360C3608362C362AD
:1010B0000363436302F0B8F928B90121074802F03D
:1010C00081FA28B908BD40F2B7110648FFF772FF50
:1010D0004FF4DE710348FFF76DFF00BF64C20020CC
:1010E00000B00240F476010800B589B01648174BED
:1010F00003600023436083600421C1601022026109
:10110000402242614FF4C0728261C3614FF40062B9
:1011100002624FF4805242628362022301930722EB
:101120000292039104920322059206930793694465
:1011300006F084F810B909B05DF804FB4FF4936130
:101140000348FFF737FF00BF24C30020400100A081
:10115000F476010808B51548154B0360154B43603C
:10116000002383600122C260036143618361C36124
:10117000036203F08DFD50B900210C4803F0E6FD39
:1011800050B90021094803F00FFE50B908BD4FF4D3
:10119000E8710948FFF70EFF40F2D7110648FFF744
:1011A00009FF4FF4EF710448FFF704FF70BE002001
:1011B00000540040FFEAC000F476010808B5154865
:1011C000154B0360154B4360002383600122C2600E
:1011D000036143618361C361036203F059FD50B948
:1011E00000210C4803F0B2FD50B90021094803F07A
:1011F000DBFD50B908BD4FF4F9710948FFF7DAFE7D
:1012000040F2F9110648FFF7D5FE4FF4007104488B
:10121000FFF7D0FEB0BC0020005C0040FFEAC00039
:10122000F476010800B58FB029482A4B03600023EB
:1012300043608360C36003612822426109228261A6
:101240003522C2610B22026240F21522426240F254
:101250001B12826240F23522C26240F21D1202630A
:1012600080F8343080F8353080F8363003F092FE64
:1012700020BB002201924FF4F071029103924FF4CF
:10128000887304930592FF20069007924FF4C06084
:101290000890072009904FF040400A900B910C9362
:1012A0008DF834208DF835208DF8362001A90848B6
:1012B00003F064FF38B90FB05DF804FB40F21D2164
:1012C0000548FFF777FE40F231210348FFF772FE31
:1012D000E4BF002000680140F476010808B50B481F
:1012E0000B4B0360FF234360012282600023C36035
:1012F000026143618361C361036203F0D3FF00B9FC
:1013000008BD40F246210348FFF754FE58C30020B1
:10131000001000A0F476010800B593B03C483D4BA6
:101320000360002343607F228260FF22C26003616A
:101330004361836104F034FF00284BD100238DF812
:1013400030308DF831308DF8323010931193012206
:101350000CA92F4804F0F0FF002840D101228DF89D
:101360002C208DF82D208DF82E2000238DF82F3085
:101370000BA9274804F072FF002835D100238DF80F
:1013800000308DF801308DF80230019304930593FD
:1013900006930793089301228DF824204FF480735D
:1013A0000A9369461A4805F047F810BB01228DF8E8
:1013B00024204FF400730A936946154805F03CF861
:1013C000E0B902220021124805F0E6F8D8B913B0BE
:1013D0005DF804FB40F266210F48FFF7EBFD40F299
:1013E00075210D48FFF7E6FD40F282210A48FFF71C
:1013F000E1FD40F297210848FFF7DCFD40F2A32110
:101400000548FFF7D7FD40F2AD210348FFF7D2FDB5
:1014100094C1002000280040F476010808B5264851
:10142000264B0360002303634360C022426383634F
:10143000C3638360036143618361214AC261C36006
:1014400043628362C36208220264012242648364AD
:10145000C364036543658365C265036605F0ECF804
:1014600000BB1848184B036000230363032242604B
:10147000C02242638363C36301228260036183618C
:10148000C36043628362C36218210164426483645F
:10149000C364036543658365C265036605F0CCF8E4
:1014A00028B908BD40F2D3210848FFF783FD40F278
:1014B000EE210648FFF77EFDECBD0020045C0140F4
:1014C00000EE020028BC0020245C0140F4760108F4
:1014D00008B50C484FF0402303600023436083604D
:1014E000C360036143618361C361036243628362DA
:1014F00005F0C4FE00B908BD40F212310248FFF702
:1015000059FD00BFA0BD0020F476010808B51148C0
:10151000114B03604FF482734360002383604FF4E8
:101520004072C260036143614FF400728261C36123
:101530000362436283620722C26203630823436338
:1015400005F0D4FE00B908BD4FF44B710348FFF716
:1015500031FD00BFFCBC002000380040F4760108DB
:1015600000B59BB03748384B03600023436083606D
:10157000C36003614361836106F0A8F8002842D18B
:101580001AA94FF4805341F8103D2E4806F09EF9F9
:1015900000283DD12B4806F0B2F800283DD10023A9
:1015A00013931493159313A9264806F06DFA002897
:1015B00038D160230C9300220D920E920F9210925C
:1015C000119212920CA91F4806F0D6FA00282ED1CB
:1015D0000023019302930393049305934FF4005265
:1015E0000692079308934FF0007209920A930B93A7
:1015F00001A9144806F074FAF0B9124800F004FF8B
:101600001BB05DF804FB40F243311048FFF7D2FCF9
:1016100040F249310D48FFF7CDFC40F24E310B4806
:10162000FFF7C8FC40F256310848FFF7C3FC40F210
:1016300062310648FFF7BEFC40F272310348FFF703
:10164000B9FC00BFB4C1002000000140F4760108DD
:1016500000B58FB025484FF08043036000234360FE
:101660008360C3600361836106F030F828BB0EA974
:101670004FF4805341F8103D1C4806F027F908BB91
:101680001A4806F03CF810BB00230793099307A9FA
:10169000164806F0F9F9F8B9602300930022019288
:1016A000029204926946114806F066FAC8B90F48DA
:1016B00000F0AAFE0FB05DF804FB40F289310C483F
:1016C000FFF778FC40F28F310948FFF773FC4FF4C5
:1016D00065710748FFF76EFC40F29B310448FFF745
:1016E00069FC4FF469710248FFF764FCA4C2002052
:1016F000F476010800B58FB02548264B036000231F
:1017000043608360C3600361836105F0DFFF28BB32
:101710000EA94FF4805341F8103D1D4806F0D6F84D
:1017200008BB1B4805F0EBFF10BB00230793099390
:1017300007A9174806F0A8F9F8B96023009300221A
:101740000192029204926946114806F015FAC8B94E
:101750000F4800F059FE0FB05DF804FB40F2BB31BA
:101760000D48FFF727FC40F2C1310B48FFF722FC80
:1017700040F2C6310848FFF71DFC40F2CD31064863
:10178000FFF718FC40F2D6310348FFF713FC00BF07
:10179000A4BF002000040040F476010800B58FB01B
:1017A0002548264B0360002343608360C3600361C8
:1017B000836105F08BFF30BB0EA94FF4805341F8D5
:1017C000103D1D4806F082F810BB1B4805F097FF3E
:1017D00018BB00230793099307A9174806F054F98B
:1017E00000BB6023009300230193029304930C2217
:1017F0006946114806F0C0F9C8B90F4800F004FE68
:101800000FB05DF804FB40F2ED310D48FFF7D2FB5D
:1018100040F2F3310A48FFF7CDFB4FF47E710848E0
:10182000FFF7C8FB40F2FF310548FFF7C3FB4FF459
:1018300081610348FFF7BEFB64BF0020000C00403D
:10184000F476010800B589B01848194B03600023ED
:1018500043608360C36003614361836105F036FFC9
:10186000A0B908A94FF4805341F8103D0F4806F085
:101870002DF880B9002301930293039301A90B482B
:1018800006F002F960B909B05DF804FB40F21F41AF
:101890000848FFF78FFB40F225410648FFF78AFB17
:1018A00040F22D410348FFF785FB00BF60BD0020DB
:1018B00000040140F476010800B589B01348144BC8
:1018C0000360002343608360C3600361836105F0AC
:1018D00016FF80B9602301930022029203920592C1
:1018E00001A90A4806F048F950B9084800F08CFDF3
:1018F00009B05DF804FB4FF488610648FFF75AFB16
:1019000040F249410348FFF755FB00BFE4C2002005
:1019100000180040F476010808B50C480C4B036031
:101920004FF4E133436000238360C36003610C2202
:1019300042618361C3610362436206F020FC00B927
:1019400008BD4FF48C610348FFF734FB24C100202D
:1019500000100140F476010808B50C480C4B0360F8
:101960004FF4E133436000238360C36003610C22C2
:1019700042618361C3610362436206F000FC00B907
:1019800008BD40F275410348FFF714FBF4C1002085
:1019900000140140F476010800B5B5B0484B1A6C4C
:1019A00042F080521A641B6C03F080530093009B3A
:1019B000444B1A6842F440421A601B6803F44043E7
:1019C0000193019B092328934FF48032299201222D
:1019D0002D9202222E924FF480012F9119213091E5
:1019E0004FF4C87131913292339328A803F0BEFCB2
:1019F000002850D103F0F0FB002851D10F2323938E
:101A000002232493002325934FF4A05326934FF4ED
:101A100080532793062123A803F0E6FE002844D133
:101A2000294B0293642303930223069304930593A3
:101A30004FF4C072079205220992089303230A9378
:101A400001230B930C934FF400330D934FF4007369
:101A50000E9300231293139318931B931D934FF02F
:101A600000622192229302A803F0B4FF10BB03F09E
:101A70006DFF164BA3FB0030800901F0A5FB04208D
:101A800001F0B8FB00220F214FF0FF3001F05EFBA8
:101A900035B05DF804FB40F21B110D48FFF78AFAE0
:101AA0004FF491710A48FFF785FA4FF4987108488E
:101AB000FFF780FA40F24D110548FFF77BFA00BFAF
:101AC00000380240007000406848B101D34D6210F8
:101AD000F476010800B587B001F082F9FFF75CFFEA
:101AE000FFF750F8FFF768FAFFF79EFAFFF7B6FA2C
:101AF000FFF7D4FAFFF7F8FAFFF72CFBFFF75EFBCE
:101B0000FFF790FBFFF7EAFBFFF706FCFFF786FC09
:101B1000FFF728F8FFF7DCFCFFF7F8FCFFF720FDE4
:101B2000FFF796FDFFF7E6FDFFF738FEFFF78AFEA9
:101B3000FFF7C2FEFFF7F0FEFFF70EFF01AC074D07
:101B40000FCD0FC42B682360002101A807F047FBCD
:101B5000034B186007F02BFBFEE700BFE0730108A2
:101B6000ACBC002008B5074B01221A70FEF762FDDD
:101B700020B9044A137803F0FE031370014B187860
:101B800008BD00BF0000002010B582B00446124B13
:101B900001221A7007F010FB18B90F4B187802B029
:101BA00010BDFEF76DFD88B10B4B1B78DBB2012B2E
:101BB000F3D00A4A6B4692E8030083E80300002151
:101BC000184607F01DFC064B1860E6E72046FFF7B5
:101BD000C9FF014B1870E7E700000020F47301080B
:101BE0002802002008B5FFF7BDFF08BD10B584B07E
:101BF000084611461A46FEF705FD10B1012004B053
:101C000010BD47F23052104B196801A807F034FCA0
:101C1000019B102B01D00120F1E7029B012B01D089
:101C20000120ECE707F0D1FA47F23054044407F002
:101C3000CCFAA04205D2FEF7FDFC0028F7D1002027
:101C4000DDE70120DBE700BF2802002010B584B0EB
:101C5000084611461A46FEF7E1FC10B1012004B017
:101C600010BD47F23052104B196801A807F004FC70
:101C7000019B102B01D00120F1E7029B022B01D028
:101C80000120ECE707F0A1FA47F23054044407F0D2
:101C90009CFAA04205D2FEF7CDFC0028F7D1002027
:101CA000DDE70120DBE700BF28020020154B1B7891
:101CB00013F0010F21D110B588B0144603291ED8A6
:101CC000DFE801F002050C13002008B010BD6846E3
:101CD000FEF7BAFC069B23600020F6E76846FEF795
:101CE000B3FC079B23800020EFE76846FEF7ACFCBF
:101CF000079B5B0A23600020E7E70320704704206E
:101D0000E3E700BF0000002008B54FF0FF320121DB
:101D1000024B186807F07CFB08BD00BF28020020BA
:101D20002C4B1B6803B17047F0B587B0294B0122DB
:101D30001A60294B9A6B42F001029A639B6B03F085
:101D400001030093009B4FF68373019302270297D0
:101D500000260396032504950C24059401A91F4829
:101D600002F0DCF848F233130193029703960495CE
:101D7000059401A91A4802F0D1F84CF203730193BB
:101D8000029703960495059401A9164802F0C6F837
:101D90004FF63F030193029703960495059401A91A
:101DA000114802F0BBF8282301930297039604958B
:101DB000059401A90D4802F0B1F808230193029798
:101DC00003960495059401A9094802F0A7F807B005
:101DD000F0BD00BF2C02002000380240001002407D
:101DE00000180240000C024000140240001C024097
:101DF0000008024000B583B0214B1A6C42F08052BB
:101E00001A641A6C02F080520092009A5A6C42F4E2
:101E100080425A645B6C03F480430193019B03206E
:101E200001F082F9002211466FF00B0001F08EF9EB
:101E3000002211466FF00A0001F088F900221146D5
:101E40006FF0090001F082F9002211466FF00400E2
:101E500001F07CF9002211466FF0030001F076F9E1
:101E600000220F216FF0010001F070F900220F2114
:101E70004FF0FF3001F06AF903B05DF804FB00BFDA
:101E8000003802400268134B9A4200D0704730B5C8
:101E900087B003F58B335A6C42F480625A645B6CF2
:101EA00003F480630093009B4FF4F86301930325D0
:101EB00002950024039401A9074802F02FF801239A
:101EC00001930295039401A9044802F027F807B092
:101ED00030BD00BF0022014000140240000002405B
:101EE0000268094B9A4200D0704782B003F5006344
:101EF0001A6B42F480521A631B6B03F480530193F4
:101F0000019B02B0704700BF003002400268244BC2
:101F10009A4200D0704770B586B0224B5A6B42F09F
:101F200001025A635B6B03F001030093009B602383
:101F30000193022602960024039404940D2505952E
:101F400001A9194801F0EAFF0823019302960394BE
:101F50000494059501A9154801F0E0FF4FF40073C2
:101F60000193029603940494059501A9104801F089
:101F7000D5FF4FF4BC430193029603940494059556
:101F800001A90C4801F0CAFF502301930296039463
:101F90000494059501A9084801F0C0FF06B070BD82
:101FA000000005500038024000100240000C0240C2
:101FB00000180240001C02400000024002680E4B64
:101FC0009A4200D0704700B583B0A3F5F0431A6B76
:101FD00042F400021A631B6B03F400030193019B9C
:101FE000002205215A2001F0B1F85A2001F0E0F852
:101FF00003B05DF804FB00BF00B0024000B589B03B
:1020000003681E4A934205D01D4A93421CD009B072
:102010005DF804FB4FF440730393122304930123F0
:102020000593002306930423079303A9154801F0A1
:1020300075FF154B1A6C42F400121A641B6C03F402
:1020400000130193019BE2E74FF4C0730393122343
:10205000049301230593032306930423079303A901
:102060000A4801F05BFF084B1A6C42F400021A6444
:102070001B6C03F400030293029BC8E7005400406A
:10208000005C00400004024000380240001C024096
:1020900002682A4B9A4200D0704770B586B003F5AB
:1020A00050435A6C42F080625A645B6C03F0806368
:1020B0000093009B102301930225029500240394B2
:1020C00004940E26059601A91D4801F027FF4EF63F
:1020D000FF730193029503940494059601A919488E
:1020E00001F01CFFF72301930295039404940596D5
:1020F00001A9154801F012FF4FF480530193029596
:10210000039404940923059301A9104801F006FFE4
:102110004FF446430193029503940494059601A954
:102120000B4801F0FBFE22460521582001F00EF875
:10213000582001F03DF806B070BD00BF00680140B6
:102140000010024000240240002802400018024013
:10215000002002400268254B9A4200D070472DE9CA
:10216000F04387B0224B9A6B42F002029A639B6B5A
:1021700003F002030093009B4FF00409CDF8049094
:102180000226029600250395032404940927059747
:102190000DEB0901174801F0C1FE4023019302969F
:1021A000039504940A230593DFF850800DEB090191
:1021B000404601F0B3FECDF80490029603950494D6
:1021C00005970DEB0901404601F0A8FE4FF460535E
:1021D000019302960395049405970DEB09010648B7
:1021E00001F09CFE07B0BDE8F08300BF001000A026
:1021F0000038024000100240000C0240000402407F
:102200000268054B9A4200D07047044A136F43F4AA
:1022100000431367F8E700BF002800400038024081
:102220000268164B9A4200D07047F0B587B003F5AC
:1022300086335A6C42F400625A645B6C03F40063A8
:102240000093009B4FF4F853019302270297002656
:102250000396032504950C24059401A9084801F070
:102260005DFE0423019302970396049505940DEBFC
:102270000301044801F052FE07B0F0BD002C0140FC
:1022800000080240000C02400368B3F1402F00D068
:10229000704700B587B003F5FC331A6C42F4803206
:1022A0001A641B6C03F480330093009B802301931A
:1022B000022302930023039304930823059301A9A7
:1022C000024801F02BFE07B05DF804FB000C024051
:1022D0000268154B9A4200D0704770B586B003F57E
:1022E00000331A6C42F480421A641B6C03F480437E
:1022F0000093009B02250195029500240394049409
:102300000526059601A9094801F008FE4FF440434F
:102310000193029503940494059601A9044801F0E1
:10232000FDFD06B070BD00BF003800400020024037
:102330000004024086B00368234A934216D0B3F1EA
:10234000804F1FD0214A934228D0214A934230D057
:10235000204A934214D1204B5A6C42F002025A6434
:102360005B6C03F002030593059B09E01A4B5A6C62
:1023700042F001025A645B6C03F001030193019B7C
:1023800006B0704703F50E331A6C42F001021A646E
:102390001B6C03F001030293029BF1E70E4B1A6CD6
:1023A00042F002021A641B6C03F002030393039BC6
:1023B000E6E7094B1A6C42F008021A641B6C03F042
:1023C00008030493049BDBE7000001400004004085
:1023D000000C004000040140003802400268094B34
:1023E0009A4200D0704782B003F508331A6C42F06D
:1023F00040021A641B6C03F040030193019B02B07E
:10240000704700BF0018004000B587B003682C4A31
:1024100093420ED0B3F1804F1AD02A4A934226D06D
:10242000294A934230D0294A93423AD007B05DF806
:1024300004FB4FF480730193022302930023039360
:1024400004930123059301A9214801F067FDEDE7FD
:102450004FF4004301930223029300230393049358
:102460000123059301A91A4801F058FDDEE7102366
:10247000019302230293002203920492059301A97F
:10248000144801F04BFDD1E701230193022302938D
:10249000002203920492059301A90F4801F03EFD2A
:1024A000C4E7402301930223029300230393049380
:1024B0000923059301A9094801F030FDB6E700BFE3
:1024C0000000014000040040000C004000180040E3
:1024D000000002400004024000200240001C0240B4
:1024E00070B588B00368224A934204D0214A9342CF
:1024F00024D008B070BD204B5A6C42F010025A64D0
:102500005B6C03F010030193019B8023039302266D
:1025100004960024059406940725079503A91748F7
:1025200001F0FCFC4FF400730393049605940694A9
:10253000079503A9124801F0F1FCDAE70E4B5A6C3B
:1025400042F020025A645B6C03F020030293029B6A
:10255000C0230393022304930023059303230693CC
:102560000823079303A9074801F0D8FCC1E700BF7F
:1025700000100140001401400038024000040240F5
:10258000000002400008024008B5FFF7C9FB08BD83
:1025900010B588B004460268224B9A4205D02268E2
:1025A000214B9A421FD008B010BD204B9B684BB9FD
:1025B0001F4A516C41F400015164526C02F4000254
:1025C0000192019A0133194A9360F0230393022385
:1025D00004930023059306930A23079303A9154840
:1025E00001F09CFCDBE7114B9B684BB9104A516C26
:1025F00041F400015164526C02F400020292029A0A
:1026000001330A4A93604FF48063039302230493D7
:102610000023059306930A23079303A9064801F0B4
:102620007DFCC0E7045C0140245C01402C020020DA
:1026300000380240002002400018024000B589B076
:1026400000220146362000F081FD362000F0B0FD6A
:10265000154B1A6C42F010021A641B6C03F0100345
:102660000193019B02A903A803F096F903F074F902
:1026700043000E48A0FB03239B0C013B0C480D4A72
:10268000026040F2E732C26043600023036183606E
:1026900005F01CF818B1012009B05DF804FB0448EE
:1026A00004F0B0FEF8E700BF0038024083DE1B43B1
:1026B000A4C300200010004008B506F02DFF08BD9F
:1026C00008B5024804F0AEFE08BD00BFA4C3002058
:1026D00008B5024801F01AFA08BD00BF649F002047
:1026E00008B5024802F0ECF908BD00BFB8C70020E9
:1026F00008B5024800F0C8FE08BD00BF64C2002053
:1027000003460D4A126862B10B4A10680B4A126800
:102710001268A2F500520344934206D8064A136099
:102720007047054A06491160EEE7064B0C221A6015
:102730004FF0FF30704700BF3802002008ED00E086
:10274000400201201002012070B51646002405E069
:102750004D1C0878AFF3008001342946B442F7DB02
:10276000304670BD4FF0FF3070474FF400534B6060
:1027700000207047012070470020704770B50D465B
:102780001646002404E0AFF30080287001340135C0
:10279000B442F8DB304670BD7047000038B51E4BC0
:1027A0009A6901329A61DB691BB11B4AD369013B0B
:1027B000D361002401E00134E4B2174B1B78A3423B
:1027C00027D92546144B03EB84035B68002BF2D01A
:1027D0001A7812F0020FEED09A680AB1013A9A60A4
:1027E0000D4B03EB850358688368002BE3D1C36866
:1027F00001699847084B03EB85056B685A689A6036
:102800001A7812F0010FD6D11A786FF341021A70BC
:10281000D1E7FFF7C1FF38BD3C020020014B9869AA
:10282000704700BF3C02002038B50446EFF3058333
:102830003BB174B1074B1B6813F4803FF9D0013CE6
:10284000F7E7FFF7EBFF0546FFF7E8FF401BA04265
:10285000FAD338BD10E000E00E4B984211D80E4B71
:1028600003440E4AA2FB03231B090D4A032B01D983
:102870000432043B01F03D010A48C35C99401160F9
:102880007047094B0344054AA2FB03231B09074A6F
:10289000ECE700BF0F640240F09FFDBFABAAAAAAFD
:1028A0000860024010740108F09BFDBF08640240FC
:1028B0000E4B984211D80E4B03440E4AA2FB032341
:1028C0001B090D4A032B01D90432043B10680B4A43
:1028D000D35CD84000F03D007047094B0344054AE3
:1028E000A2FB03231B09074AECE700BF0F64024069
:1028F000F09FFDBFABAAAAAA0060024010740108B5
:10290000F09BFDBF006402407047704770477047FE
:10291000704738B505463D21FFF7CAFF04463D2103
:102920002846FFF799FF14F0200F03D02B6813F00F
:10293000100F1CD114F0100F03D02B6813F0080FE8
:1029400019D114F0080F03D02B6813F0040F16D11F
:1029500014F0040F03D02B6813F0020F13D114F0FE
:10296000010F03D06B6913F0800F10D138BD2846DA
:10297000FFF7CAFFDEE72846FFF7C7FFE1E7284673
:10298000FFF7C4FFE4E72846FFF7C1FFE7E7284663
:10299000FFF7BEFFEAE7000008B50248FFF7B9FFFE
:1029A00008BD00BF1060024008B50248FFF7B1FF44
:1029B00008BD00BF2860024008B50248FFF7A9FF24
:1029C00008BD00BF4060024008B50248FFF7A1FF04
:1029D00008BD00BF5860024008B50248FFF799FFE4
:1029E00008BD00BF7060024008B50248FFF791FFC4
:1029F00008BD00BF8860024008B50248FFF789FFA4
:102A000008BD00BFA060024008B50248FFF781FF83
:102A100008BD00BFB860024008B50248FFF779FF63
:102A200008BD00BF1064024008B50248FFF771FFFF
:102A300008BD00BF2864024008B50248FFF769FFDF
:102A400008BD00BF4064024008B50248FFF761FFBF
:102A500008BD00BF5864024008B50248FFF759FF9F
:102A600008BD00BF7064024008B50248FFF751FF7F
:102A700008BD00BF8864024008B50248FFF749FF5F
:102A800008BD00BFA064024008B50248FFF741FF3F
:102A900008BD00BFB864024008B5024802F0FBFA66
:102AA00008BD00BF5C02002004290CD0052902D01B
:102AB000022904D07047064B03221A707047044B5A
:102AC00002221A707047024B01221A70F2E700BF0F
:102AD0003403002010B5074C01220749204612F0AC
:102AE0005FFC0649204612F08FFC204612F0D0FC15
:102AF00010BD00BFE4C30020A92A00081800002070
:102B00000368B3F1A04F00D0704710B588B04FF400
:102B1000E0530393022304930024059403230693B4
:102B20000A23079303A9104801F0F8F90F4B5A6BD9
:102B300042F080025A635A6B02F080020192019ABD
:102B40005A6C42F480425A645B6C03F480430293F3
:102B5000029B22460521432000F0F8FA432000F0B2
:102B600027FB08B010BD00BF000002400038024043
:102B700008B5D0F8BC0212F098FC08BD08B5D0F832
:102B8000BC0212F0DCFD08BD08B5D0F8BC0212F0A2
:102B9000F1FD08BD08B5D0F8BC0212F00DFE08BD6D
:102BA00008B5D0F8BC0212F089FC08BD08B5D0F811
:102BB000BC0212F087FC08BD90F8C033012B01D095
:102BC0000020704710B504461048C0F8BC42C4F855
:102BD000C4034FF0A0430360082383600323C36052
:102BE0000023036102228261C36101F035FB40B919
:102BF000064802F043F80146204612F053FC00203C
:102C000010BDEE210248FEF7D5F9F1E7B8C7002064
:102C10002C77010808B5D0F8C40301F0F5FF18B10E
:102C2000022803D0022008BD0020FCE70120FAE7BB
:102C300008B5D0F8C40301F0FDFF18B1022803D095
:102C4000022008BD0020FCE70120FAE708B5D0F813
:102C5000C40302F018F818B1022803D0012008BDFF
:102C60000020FCE70220FAE708B5D0F8C40301F021
:102C7000F3FF18B1022803D0022008BD0020FCE7B2
:102C80000120FAE708B5D0F8C40301F0F1FF08BD50
:102C900010B584B0D0F8C403BDF8204002949DF86C
:102CA0001C4001949DF81840009401F073FA20B183
:102CB000022804D0022004B010BD0020FBE7012050
:102CC000F9E708B5D0F8C40301F0B4FA18B1022846
:102CD00003D0022008BD0020FCE70120FAE710B570
:102CE00084B0D0F8C4039DF824400394BDF820407C
:102CF0000294079C01949DF81840009401F0EEFAAC
:102D000020B1022804D0022004B010BD0020FBE74F
:102D10000120F9E708B5D0F8C40301F0A2FF08BD0F
:102D200008B590F8C033012B04D0C820FFF77CFD14
:102D3000002008BD084600F01FF8F6E710B4D0F8F0
:102D4000C43301EB8104E0000446184490F83B00D2
:102D500048B901EB8101C800034483F851200020E9
:102D60005DF8044B7047234483F85020F7E708B51B
:102D7000FFF75AFD08BD000008B528B10022202148
:102D8000024801F0C2F908BD0122F8E7000C024038
:102D900010B40F4AD2F8883043F47003C2F8883078
:102DA0000C4B196841F001011960002098601C6803
:102DB00009492140196009495960196821F48021A5
:102DC0001960D8604FF0006393605DF8044B704762
:102DD00000ED00E000380240FFFFF6FE1030002456
:102DE00008B5032000F0A0F90020FFF727FCFFF74B
:102DF00001F8002008BD0000494B5A6822F4403217
:102E00005A605A6841680A435A600268536823F45A
:102E10008073536002685368016943EA0123536079
:102E20000268536823F040735360026853688168F6
:102E30000B4353600268936823F400639360026855
:102E40009368C1680B439360826A364B9A4249D0BB
:102E50000268936823F07063936002689368816AE4
:102E60000B4393600268936823F0405393600268B9
:102E70009368C16A0B4393600268936823F002036E
:102E8000936002689368816943EA41039360036A2F
:102E9000002B32D10268536823F400635360026848
:102EA000D36A23F47003D3620168CB6AC269013A22
:102EB00043EA0253CB620268936823F40073936081
:102EC00002689368016B43EA412393600268936848
:102ED00023F48063936002689368416943EA812325
:102EE000936070470268936823F070639360026890
:102EF000936823F040539360BEE70268536843F43D
:102F0000006353600268536823F4604353600168B0
:102F10004B68426A013A43EA42334B60BFE700BF65
:102F2000002301400100000F20B310B50446036CDC
:102F300043B1236C13F0100F0AD00120002384F852
:102F40003C3010BD436480F83C30FEF79BFFF0E757
:102F5000226C094B134043F0020323642046FFF721
:102F60004BFF00206064236C23F0030343F0010354
:102F70002364E3E701207047FDEEFFFF30B482B029
:102F80000023019390F83C30012B00F0C080012316
:102F900080F83C300B68092B22D90568EA689BB29F
:102FA00003EB43031E3B072404FA03F322EA030363
:102FB000EB600B68574A93420BD00568EA688C684F
:102FC0009BB203EB43031E3B04FA03F31343EB6092
:102FD0001BE00268D3688C6843EA0463D36014E0A2
:102FE00005682A699BB203EB4303072404FA03F341
:102FF00022EA03032B6105682A698C680B8803EBBE
:10300000430304FA03F313432B614B68062B24D8C4
:1030100005686A6B03EB8303053B1F2404FA03F383
:1030200022EA03036B6305686A6B4B6803EB830357
:10303000053B0C8804FA03F313436B630268364BB9
:103040009A423AD00268344B9A423FD0002380F82B
:103050003C30184602B030BC70470C2B16D80568BF
:103060002A6B03EB8303233B1F2404FA03F322EAB6
:1030700003032B6305682A6B4B6803EB8303233B35
:103080000C8804FA03F313432B63D7E70568EA6A55
:1030900003EB8303413B1F2404FA03F322EA0303F7
:1030A000EB620568EA6A4B6803EB8303413B0C88DB
:1030B00004FA03F31343EB62C0E70B68122BC1D190
:1030C000164A536843F480035360BBE70B68114A08
:1030D000112B18BF9342B9D1104A536843F400032F
:1030E00053600A680B4B9A42B0D10D4B1B680D4AD6
:1030F000A2FB03239B0C03EB83035A00019202E023
:10310000019B013B0193019B002BF9D19EE702201B
:10311000A0E700BF12000010002001400023014082
:103120000400002083DE1B430649CB6823F4E063E0
:103130001B041B0C000200F4E0600343024A1A4324
:10314000CA60704700ED00E00000FA0530B4154B8E
:10315000DB68C3F30223C3F10704042C28BF042453
:103160001D1D062D14D9033B4FF0FF3505FA04F45D
:1031700021EA0401994005FA03F322EA0303194303
:10318000002807DB0901C9B2074B195430BC70474E
:103190000023E9E700F00F000901C9B2034B1954FD
:1031A000F4E700BF00ED00E000E400E014ED00E013
:1031B00000F01F02400901239340024A42F82030E8
:1031C000704700BF00E100E00138B0F1807F0AD213
:1031D000064B5860064AF02182F8231000209860C0
:1031E00007221A6070470120704700BF10E000E01E
:1031F00000ED00E0042805D0054A136823F004031D
:1032000013607047024A136843F004031360704769
:1032100010E000E0002838D010B50446437F1BB30F
:103220000223637723791BBB2368194A5A612268FA
:10323000936823F018039360637913BB23684FF0FE
:10324000FF321A612268936823F0600361690B43BF
:1032500093602268936823F08003A1690B43936015
:1032600001236377002010BD0377FEF739FED7E70F
:10327000E268A168204600F00DF80028DCD00120AB
:10328000F1E7236822691A61DCE70120704700BF7B
:10329000B71DC10410B41F2300E0234621FA03F434
:1032A00014F0010F03D15C1E002BF6D12346102A27
:1032B00013D0182A0DD0082A13D003685961016869
:1032C0008B6823F018031A438A6000205DF8044BD2
:1032D0007047062BF1D90120F8E7072BEDD9012023
:1032E000F4E70F2BE9D90120F0E70000002844D0D3
:1032F00010B5044690F83530002B2ED0022384F808
:103300003530226811681E4B0B401360226811682B
:10331000636860690343E068034320690343A0686E
:103320000343A0690343206A0343606A0343A06A1E
:103330000343E06A0343206B03430B43136063685A
:10334000102B0DD02268D36843F01E03D3600020F9
:10335000E064012384F8353010BDFEF7D7FDCDE7DA
:10336000237F627F43EA0223A27F43EA0243E17F95
:10337000226843EA01639361E4E70120704700BFDC
:1033800007F0E0FF30B405682C6824F480242C603A
:10339000046863608368402B05D003689960036804
:1033A000DA6030BC704703689A600368D960F8E758
:1033B00038B5856D90F83440012C31D0012480F867
:1033C000344090F83540E4B2012C04D0002380F85A
:1033D0003430022038BD0446022084F83500002035
:1033E00060652046FFF7CEFFE26D3F239340AB6060
:1033F0002268136843F0160313602268536943F090
:1034000080035361236C23B12268136843F00803DF
:1034100013602268136843F0010313600020D9E7AA
:103420000220D7E7406D704738B310B5044690F8D6
:103430003930EBB1022384F839302268136823F461
:10344000403361680B4313602268536B23F007031A
:10345000A1680B4353632268116C094B0B40E16870
:103460000B4313640020E063012384F8393010BD5E
:1034700080F83830FEF7A2FDDCE70120704700BF7E
:1034800000C0FFFF7047704770B5044603685D6871
:103490001E6815F0010F16D016F4807F13D01A683D
:1034A00022F480721A60C36B43F00103C3630368A4
:1034B00001229A60042380F83930002380F83830E4
:1034C000436903B1984715F0200F18D016F4005F38
:1034D00015D02268136823F4005313602368202258
:1034E0009A60E36B43F00203E363042384F839300A
:1034F000002384F8383063690BB12046984715F0F3
:10350000080F18D016F4006F15D02268136823F442
:1035100000631360236808229A60E36B43F004039E
:10352000E363042384F83930002384F83830636976
:103530000BB12046984715F0040F02D016F4806FA7
:1035400020D115F0020F16D016F4007F13D0226898
:10355000136823F400731360236802229A60E36BFC
:10356000E363012384F83930002384F83830236979
:103570000BB12046984715F0100F02D016F4805F6B
:103580000CD170BD2268136823F480631360236834
:1035900004229A602046FFF775FFD2E7226813687D
:1035A00023F480531360236810229A60E36BE36373
:1035B000012384F83930002384F838302046FFF79F
:1035C00062FFDEE790F83830012B59D030B4012388
:1035D00080F83830022380F8393000EB0113DA69C3
:1035E0008B1C1B01C35842EA0343093A012A1ED926
:1035F0008A1C00EB0212526843EA026341BB046872
:10360000656A204A2A4013436362026800EB011393
:103610009C699461DB69093B012B10D9012380F877
:103620003930002380F83830184630BC70478A1C87
:1036300000EB0212526802F07F421343DEE70231D0
:1036400000EB01114B68026823F07F439362E5E7CA
:103650000468E5690B4A2A401343E361026800EB02
:1036600001139C691461DB69093B012BD6D8023137
:1036700000EB01114B68026823F07F431362CDE732
:1036800002207047F0FFFC005079137943EA0023D1
:1036900007480B50D07893781B0443EA00635078B6
:1036A00043EA002312781343024A8B50704700BF4D
:1036B0004080024044800240016841F218028B5869
:1036C00043F400538B507047016841F218028B5845
:1036D00043F002038B50704770B59EB0044629B189
:1036E0004FF40063C3604FF480438360E369002BB1
:1036F00068D14FF48063079321680B68374A1A40FA
:10370000A368E06803430798034343F4007313433B
:103710000B6023681D680120FFF786F823681D6091
:10372000236840225A6023685D680120FFF77CF817
:1037300023685D60236800259D602368DD60226842
:10374000936923F0BE031B041B0C43F080039361B9
:1037500023689E690120FFF767F823689E6123684C
:10376000DD612368DD690120FFF75EF82368DD6114
:10377000216841F218054B59194A1A40194B134355
:103780004B5123685E590120FFF74EF823685E51C4
:10379000236803F58053144A1A60236803F58053A5
:1037A0001D680120FFF740F8236803F580531D6072
:1037B000A369012B09D0626900212046FFF764FF4D
:1037C0001EB070BD0023079396E7216841F21C02EA
:1037D0008858064B03438B50EDE700BF0F8120FF55
:1037E000233FDEF8040020028020C10240000100D7
:1037F00010B582B00446002301930268136843F0B9
:103800000803136003681B6801930120FFF70CF89D
:103810002368019A1A6002B010BD10B582B0044648
:10382000002301930268136843F0040313600368E4
:103830001B6801930120FEF7F7FF2368019A1A60C5
:1038400002B010BD30B583B0054600230193026875
:1038500041F21804135943F48013135103681B59A0
:1038600001930120FEF7E0FF2B68019A1A5103B083
:1038700030BDF0B490F84540012C31D0012480F8DF
:103880004540022480F84440C162002401E0F96010
:1038900001349C4217D265014F194FF480164E51E6
:1038A00040F2F45606FB0426BE60C6691EB94E59A6
:1038B00046F440064E515D1EA542E8D9651C01EB59
:1038C0004515FD60E4E7026841F21003D150012381
:1038D00080F84430002380F845301846F0BC70472B
:1038E0000220FBE7F0B490F84540012C2ED00124D3
:1038F00080F84540022480F844408162002401E0C1
:10390000E96001349C4214D266018D194FF00047E2
:103910008F5144F2F4566E6040F2F45606FB0426D2
:10392000AE605E1EA642EBD9661C01EB4616EE6049
:10393000E7E7026841F20C03D150012380F84430DC
:10394000002380F845301846F0BC70470220FBE7A2
:1039500090F84530012B00F08580012380F8453038
:10396000022380F84430B1B1C36A1A68002A1ADB16
:1039700030B440F2F45291421DD93B4AA2FB0142BD
:10398000920A40F2F45404FB121404B10132012AE9
:1039900011D0002347E0012380F84430002280F852
:1039A000452018467047122380F84430002380F8E1
:1039B0004530012070471A6842F040521A60C36ACD
:1039C000C1F30C015960C26A136843F000431360ED
:1039D000C36ADB68C362036841F214029A5812F0AA
:1039E000040F08D041F2140204219950026841F2F8
:1039F00004030021D150012380F84430002380F8D3
:103A00004530184630BC7047C56A2C6844F0805475
:103A10002C6011E0C56A2C6844F000442C60C46A34
:103A2000E468C46201339A42D5D9C56A2C6824F08F
:103A300040542C60002BE7D0C46A40F2F455656016
:103A4000541E9C42E6D1C56A2C6844F000542C6098
:103A5000064C04FB021404F2F454C56AC4F30C04CB
:103A60006C60D7E7022070470BB002AC0CFAFFFF86
:103A700090F84530012B45D0012380F845300223D2
:103A800080F844300021836A1A68002A32DB032957
:103A900030D801311A6802F44072B2F5007F09D0C3
:103AA0001A6812F4407F0BD1826B01328263DB68AB
:103AB0008362E8E7036301228263DB688362E2E7F3
:103AC0004363826B01328263012A11D01A68C2F308
:103AD0000D42043AC263026B92680264DB6883623F
:103AE000012380F84430002380F8453018467047A1
:103AF0000363EBE7012380F84430002280F845207F
:103B000018467047022070477047704710B504464A
:103B1000036841F214029A5812F0400F11D141F299
:103B200014029B5813F0010F19D1226841F21403BB
:103B30004FF48031D1502268D35813F4004F1BD179
:103B400010BDFCF789FF226841F214034021D150D7
:103B5000012384F84430002384F84530E5E7FFF77B
:103B6000D3FF2168012341F214028B5084F84430C2
:103B7000002384F84530D8E72046FFF7C6FF2268C7
:103B800041F214034FF40041D150012384F8443032
:103B9000002384F84530D3E7F8B590F84430DBB221
:103BA000822B33D016460546822380F844300268C3
:103BB000136903F01C03048AE402A4B223438C01BA
:103BC00004F4F8641C4344F001041461FEF726FE7B
:103BD000074614F0010F10D0FEF720FEC01BB0F511
:103BE000803F02D22B681C69F3E7012385F844303B
:103BF000002385F84530032007E02B685B699BB202
:103C00003360012385F844300020F8BD0220FCE732
:103C100090F84430DBB2422B32D070B505464223D7
:103C200080F844300068036903F01C032C8AE40226
:103C3000A4B223438C0104F4F8641C4344F003044D
:103C400092B242612B681C61FEF7E8FD064614F053
:103C5000010F10D0FEF7E2FD801BB0F5803F02D2CD
:103C60002B681C69F3E7012385F84430002385F8AD
:103C70004530032003E0012385F84430002070BD67
:103C80000220704770B582B000230193002800F035
:103C90000D81044690F84430002B32D0844B5A6C8E
:103CA00042F480425A645B6C03F480430093009BAF
:103CB000804B5A6822F400025A605A68216A0A430B
:103CC0005A60236803F580531A6842F001021A60B3
:103CD000FEF7A4FD0546236803F58052126812F032
:103CE000010F13D0FEF79AFD401BB0F5FA7FF2D911
:103CF000032584F84450002384F84530284602B058
:103D000070BD80F84530FCF74DFEC7E71D6925F012
:103D10001C0501F01BFE684B0344684A934256D8C9
:103D200045F0080523681D614FF40042002120463C
:103D3000FFF76EFF0546002861D140F6FF70FEF7E1
:103D400073FD6368002B00F09180FEF767FD064667
:103D500001AA01212046FFF71FFFFEF75FFD801B30
:103D600041F28833984252D8019B13F0040FEFD0F0
:103D70004FF4805200212046FFF74AFF002852D11D
:103D8000FEF74CFD064601AA01212046FFF704FF7D
:103D9000FEF744FD801B41F2883398424BD8019BCB
:103DA00013F0200FEFD001AA10212046FFF7F4FEF8
:103DB00000284CD1019B13F0040F50D04FF4006247
:103DC000E26013F0020F4DD00023A3605EE03C4B95
:103DD00003443C4A934202D845F00C05A2E73A4B13
:103DE00003443A4A93429DD9394B0344394A93429A
:103DF00002D845F0040595E745F0100592E701214A
:103E00002046FFF769FC012584F8445076E701213C
:103E10002046FFF761FC012384F84430002384F836
:103E2000453003256AE701212046FFF755FC0125AF
:103E300084F8445062E701212046FFF74DFC01233E
:103E400084F84430002384F84530032556E70121E7
:103E50002046FFF741FC012584F844504EE700223C
:103E6000E260AEE74FF48043A3600FE0E268C2F384
:103E7000CF02A368C3F34F031A4300212046FFF784
:103E8000C7FE58B940F6FF70FEF7CEFC0021204671
:103E9000FFF722FC012384F844302FE7012120465C
:103EA000FFF71AFC012584F8445027E7012525E790
:103EB000003802400038014000D3CEFEBFE1E400EC
:103EC00040F1E9FD3F787D0100796CFCFF59620209
:103ED000001F0AFA7FF0FA0238B590F84530012B3E
:103EE0001AD00446012580F84550022380F844305A
:103EF000FFF77EFC2046FFF790FC2046FFF7A2FC70
:103F00002046FFF7D9FB2046FFF7DEFB84F844503C
:103F1000002084F8450038BD0220FCE700230F2B69
:103F200000F2E280F0B482B039E0092200E0002221
:103F3000B2403A4302346D4E46F824206C4A14686D
:103F4000EA4302EA04064F6817F4803F01D045EACD
:103F50000406674C2660646802EA04064F6817F49A
:103F6000003F01D045EA0406614C6660A46802EA9D
:103F700004064F6817F4801F01D045EA04065C4C24
:103F8000A660E46822404E6816F4001F01D045EA9E
:103F90000402574CE26001330F2B00F2A280012291
:103FA0009A400C6804EA0205AA42F4D14C68122C2B
:103FB00018BF022C10D1DE08083650F826C003F0D6
:103FC0000704A7000F24BC402CEA040C0C69BC4079
:103FD00044EA0C0440F8264004685F000326BE4013
:103FE000F64306EA040C4C6804F00304BC4044EABF
:103FF0000C0404604C6804F1FF3C112C18BFBCF1A8
:10400000010F01D9122C11D1846806EA040CCC6886
:10401000BC4044EA0C048460446824EA020C4C6806
:10402000C4F300129A4042EA0C024260C268164091
:104030008A68BA403243C2604A6812F0805FAAD0F0
:104040002C4A546C44F480445464526C02F4804210
:104050000192019A9C08A61C244A52F8267003F08B
:10406000030296000F22B24027EA0207224A90423A
:104070003FF45DAF02F58062904222D002F580628B
:10408000904220D002F5806290421ED002F58062FC
:1040900090421CD002F5806290421AD002F58062F4
:1040A000904218D002F58062904216D002F58062EC
:1040B000904214D002F5806290423FF436AF0A225B
:1040C00036E7012234E7022232E7032230E70422F6
:1040D0002EE705222CE706222AE7072228E70822F6
:1040E00026E702B0F0BC7047704700BF00380140BF
:1040F000003C0140003802400000024003691942C0
:1041000001D1002070470120704712B90904816174
:104110007047816170470000F8B50668346A04F0A2
:104120000F07C4F34343C4F30A14022B2ED16CB31C
:1041300007EB8702D3000344596C39B30546224686
:10414000304604F00FFDBA003A44D3002B445A6CB9
:1041500022445A64DA6C2244DA6406EB4713D3F83B
:1041600010150B4A0A408AB1D3F8002522F080428C
:1041700042F00042C3F80025BB00D919CA002A4406
:1041800092F8503083F0010382F85030F8BD00BF40
:104190000000F81FF0B585B09DF828509DF82C6000
:1041A000BDF8307090F8B842012C41D0012480F85D
:1041B000B8424FEA810C8C444FEACC0404444FF0DF
:1041C000000C84F83DC084F83830A4F8407084F8BE
:1041D000391084F83F6002F07F0C84F83AC012F086
:1041E000800F1BD101EB810C4FEACC0404444FF04B
:1041F000000C84F83BC0044601EB810C4FEACC0074
:10420000204480F83C50029701960095206804F005
:10421000A5FD002384F8B83205B0F0BD01EB810C98
:104220004FEACC0404444FF0010C84F83BC0E2E7B1
:104230000220F1E790F8B832012B0BD010B50446FC
:10424000012380F8B832006804F010FE002084F8E2
:10425000B80210BD0220704700283DD0F0B58BB0E9
:10426000064690F8B93293B3032386F8B932306822
:1042700004F020FC344654F810CB6D460FCC0FC52B
:104280000FCC0FC594E8030085E80300371D97E8BD
:104290000E00604604F0CAFB0121306804F010FCF7
:1042A000344654F810CB6D460FCC0FC50FCC0FC55C
:1042B00094E8030085E8030097E80E00604604F0E8
:1042C000CFFC012386F8B93200200BB0F0BD80F896
:1042D000B832FEF715FCC7E701207047F8B59DF826
:1042E0001870BDF820608D000D44EC00044484F883
:1042F0003B2084F83F306FB901EB8105EC000444AA
:10430000032584F84250032B00F29580DFE803F088
:104310000A8C2E5D01EB8105EC000444022584F833
:104320004250F0E7012F08BF002A40F0848036B9E0
:1043300001EB8102D3000344012283F8512001EBF9
:104340008102D300034493F851303BB901EB810261
:10435000D3000344002283F842206CE001EB810289
:10436000D3000344022283F8422064E0B2B901EB97
:104370008102D300034493F851303BB901EB810231
:10438000D3000344002283F8422054E001EB810271
:10439000D3000344022283F842204CE001EB810267
:1043A000D300034493F850303BB901EB8102D300B2
:1043B0000344002283F842203DE001EB8102D30058
:1043C0000344022283F8422035E0B2B901EB8102B6
:1043D000D300034493F851303BB901EB8102D30081
:1043E0000344002283F8422025E001EB8102D30040
:1043F0000344022283F842201DE001EB8102D30036
:10440000034493F850303BB901EB8102D3000344DD
:10441000002283F842200EE001EB8102D300034426
:10442000022283F8422006E001EB8102D30003441C
:10443000002283F842208A005418E3000344079CBA
:104440005C649E64002483F85C40DC6483F839106B
:1044500083F85D401144CB0003F13801027C014434
:10446000006804F083FDF8BD30B583B005460468EC
:10447000D4F840340193D4F840340093009B23F0E7
:104480002E030093019B13F0020F07D0019B13F042
:10449000010F28D1009B43F002030093019B13F00E
:1044A000080F13D0009B43F008030093019B13F007
:1044B000040F34D0AB69022B1CD0EB68032B29D03E
:1044C0002846FEF76DFB2846FEF758FB019B13F0CC
:1044D000200F03D0009B43F020030093009BC4F8FF
:1044E000403403B030BDA36923F00053A361FEF74D
:1044F00045FBCFE7019B03F4C023B3F5802F04D025
:104500000121286804F04AFBDAE70221286804F058
:1045100045FBD5E74EF66022C4F80424D0E72846D0
:10452000FEF744FBD4F8403423F02E03C4F84034A3
:104530002A68936943F000539361C7E7F8B50646CC
:104540000D46076807EB411707F5A064A36813F051
:10455000040F3CD00423A360E36843F00203E3604C
:10456000A36813F4007F68D1A36813F0010F00F073
:104570008D8033694BB1AA002A44D30033449A6C2E
:104580002169C1F31201521ADA64AA002A44D30045
:104590003344012283F85D2000219965A26093F8DD
:1045A0003F20022A14BF002301238A4208BF0123AF
:1045B000002B4ED1032A57D0AB005919CA00324400
:1045C00092F8503083F0010382F85030F8BDA368B0
:1045D00013F0200F02D02023A360C1E7A36813F0DB
:1045E000080F17D1A36813F4806FB9D0E36843F0C4
:1045F0000203E360006804F039FC1023A36005EBBC
:104600008502D3003344082283F85D204FF4806391
:10461000A360A5E7E36843F00203E36001EB8102D6
:10462000D3000344052283F85D201023A3600823F0
:10463000A360006804F01AFC92E7E36843F0020309
:10464000E3602946306804F011FC4FF40073A36066
:10465000BCE7E36843F00203E3602946306804F0F6
:1046600005FC1023A360A7E7D7F8003543F00053FB
:10467000C7F8003505EB8502D3003344012283F8E7
:104680005C2029463046FEF785FA95E7A36813F0CB
:10469000020F62D0E36823F00203E36005EB8502BA
:1046A000D300334493F85D30012B20D0052B32D05A
:1046B000082B18BF062B3ED1AA002A44D30033444E
:1046C0009A6D01329A65032A2DD9AA002A44D30093
:1046D000334400229A65042283F85C20D7F8003521
:1046E00023F0804343F00043C7F8003506E005EBB4
:1046F0008502D3003344012283F85C200223A360A7
:1047000005EB8502D300334493F85C2029463046FC
:10471000FEF740FA5AE705EB8502D3003344052241
:1047200083F85C20EAE705EB8502D30033440222DC
:1047300083F85C20D2E7032BE0D105EB8502D300A0
:104740003344022283F85C20D7F8003523F08043FD
:1047500043F00043C7F80035D0E7A36813F0800F9B
:1047600021D1A36813F0100F3FF430AF05EB8502A1
:10477000D3001A46334493F83F30032B2BD0022B3F
:1047800014BF00220122002B14BF134601233BB1AA
:1047900005EB8502D300334400229A6533694BB39D
:1047A0001023A36012E7E36843F00203E360AB0069
:1047B0005919CA003244916D013191652B44DA00D8
:1047C0003244062382F85D302946306804F04EFBFF
:1047D0008023A360FAE605EB8502D3003344002270
:1047E0009A65E36843F00203E3602946306804F009
:1047F0003DFBD5E705EB8502D3003344032283F864
:104800005D20E36843F00203E3602946306804F06A
:104810002DFBC5E7F8B5036803EB411303F5A0646E
:10482000A26812F0040F24D10E460546A26812F0C9
:10483000200F25D02023A36001EB8102D3001A466C
:10484000034493F83D30012B19D18B000244002121
:1048500082F83D103344DA000244022382F85C30CF
:10486000E36843F00203E3603146006804F0FEFAB7
:1048700005E00423A360E36843F00203E360F8BDAE
:10488000A26812F0400F34D1A26812F4007F4AD11E
:10489000A26812F0010F51D1A26812F0080F62D184
:1048A000A26812F0100F6FD08A000A44D3000344AC
:1048B00000229A65032283F85D2093F83D306BB99E
:1048C00001EB8102D300034493F83C3033B901EB90
:1048D0008102D3000344012283F83D20E36843F0C2
:1048E0000203E3603146286804F0C0FA1023A36095
:1048F000C5E78B005918CA000244042182F85D10F4
:10490000012182F83D103344DA000244002393650C
:10491000E36843F00203E3603146006804F0A6FA5E
:104920004023A360ABE7E36843F00203E360006861
:1049300004F09CFA4FF40073A360A0E78F007A188C
:10494000D300034400229A65E36843F00203E36066
:10495000006804F08BFA0123A360B919C800284449
:1049600080F85D308BE70823A360E36843F002031F
:10497000E360006804F07AFA06EB8601C800284478
:10498000052380F85D307AE7A26812F0800F36D1F7
:10499000A26812F4806F43D1A26812F0020F3FF4B4
:1049A0006EAFE26822F00202E26001EB8101CA0010
:1049B0001146024492F85D20012A45D0032A62D0B4
:1049C000042A68D0052A6ED0082A18BF062A44D1C6
:1049D000282101FB06018A6D01328A65032A68D904
:1049E0000A4600219165042182F85C10D3F8002565
:1049F00022F0804242F00042C3F800252DE0E36837
:104A000043F00203E360006804F030FA06EB86012D
:104A1000CB002B44062283F85D208023A3602EE781
:104A2000E36843F00203E360006804F01FFA102318
:104A3000A3604FF48063A36006EB8601CB002B4498
:104A4000082283F85D201AE70B460344012283F80D
:104A50005C2093F83F30022B0CD00223A36006EBBE
:104A60008602D3002B4493F85C2031462846FEF79B
:104A700091F804E70B46034493F8512082F00102B9
:104A800083F85120E9E706EB8602D30003440222B3
:104A900083F85C20E1E706EB8602D30003440222A0
:104AA00083F85C20D9E7282303FB060383F85C2006
:104AB000D3E7282202FB0602022182F85C1095E768
:104AC000F8B504460568284604F064F8012800D0CB
:104AD000F8BD206804F05AF80028F9D0206804F0E6
:104AE00055F810F4001F03D023684FF400125A61E8
:104AF000206804F04BF810F4801F03D023684FF4B3
:104B000080125A61206804F041F810F0806F03D0E1
:104B100023684FF080625A61206804F037F810F083
:104B2000020F02D0236802225A61206804F02EF896
:104B300010F0005F25D1206804F028F810F0807F85
:104B400031D1206804F022F810F0080F2FD120682E
:104B500004F01CF810F0007F30D1206804F016F843
:104B600010F0100FB4D02268936923F01003936102
:104B70002046FFF7D1FA2268936943F0100393614E
:104B8000A6E7D5F8403423F02E03C5F8403420467C
:104B9000FDF7FAFF0121206804F000F823684FF0C8
:104BA00000525A61C7E72046FFF75EFCC9E720467E
:104BB000FDF7DEFF236808225A61C8E7206804F089
:104BC00050F90746002604E0F1B22046FFF722FE26
:104BD0000136A368B34212D906F00F0327FA03F394
:104BE00013F0010FF4D005EB4613D3F8003513F49E
:104BF000004FE9D0F1B22046FFF7A0FCE8E72368B8
:104C00004FF000725A61A8E738B590F8B832012B1E
:104C10000ED00446012580F8B852006803F044FF26
:104C20002946206803F0F9FF002084F8B80238BD57
:104C30000220FCE790F8B832012B0BD010B50446E7
:104C4000012380F8B832006804F03CFA002084F8B0
:104C5000B80210BD0220704708B5006803F0BEFF1F
:104C600008BD01EB8101CB00184490F85C0070474F
:104C700001EB8101CB001844C06C704708B5006897
:104C800004F067F808BD08B5006804F057F808BDDF
:104C9000002857D010B5044690F84130002B41D081
:104CA000242384F841302268136823F00103136041
:104CB0006368226823F0706313612268936823F4A9
:104CC00000439360E368012B31D0A368226843F46A
:104CD00004439360E368022B2FD0226851681A4B7B
:104CE0000B4353602268D36823F40043D3602369E5
:104CF00062691343A169226843EA0123D360E3692F
:104D0000216A22680B4313602268136843F0010391
:104D1000136000206064202384F84130206384F80D
:104D2000420010BD80F84030FDF768F9B8E7A3688D
:104D3000226843F400439360CCE723684FF4006299
:104D40005A60CAE7012070470080000290F84130A5
:104D5000DBB2202B24D190F84030012B22D001234C
:104D600080F84030242380F841300268136823F033
:104D7000010313600268136823F480531360026810
:104D80001368194311600268136843F0010313604C
:104D9000202380F84130002380F8403018467047C7
:104DA000022070470220704790F84130DBB2202B80
:104DB00022D190F84030012B20D0012380F84030E0
:104DC000242380F841300268136823F00103136044
:104DD0000268136823F4706343EA012111600268DA
:104DE000136843F001031360202380F8413000234F
:104DF00080F8403018467047022070470220704704
:104E0000F0B44D680468E368C3F30B431D44D2015A
:104E10001444D4F8883003F47043C4F888300B6825
:104E20000468E668C6F30B4633440133144443EA8E
:104E30000543C4F88830CD680468E368C3F30A0307
:104E40001D441444D4F88C3003F47043C4F88C30FF
:104E50008B680468E668C6F30A06334401331444D9
:104E600043EA0543C4F88C3003681344D3F89440F4
:104E700024F00704C3F89440036813440C69C3F892
:104E8000944091F831C091F832708E6905681544EC
:104E9000D5F89C300024C5F89C4091F8303043EAA6
:104EA0000C2343EA07430568154443EA0663C5F843
:104EB0009C3003681344D3F8985025F0FF05C3F8DD
:104EC0009850036813444D69C3F89850036813441D
:104ED000D3F8A0602D4D3540C3F8A050CD690E6ABF
:104EE000036813443543C3F8A05003681344D3F850
:104EF000AC50C3F8AC40036813444C6AC3F8AC40F0
:104F00000B696BB1012B3AD0022B18BF042B38D0A0
:104F1000032B38D0072B01D0012302E0022300E04D
:104F2000042304681444D4F8B05005F0E025C4F814
:104F3000B0508C6A03FB04F54C680E68A41B03FB9D
:104F400004F303330468144443EA0543C4F8B0305F
:104F500003681344D3F8B4500D4C2C40C3F8B4404C
:104F600003681344C96AC3F8B41003681A44D2F83A
:104F7000843043F00103C2F88430F0BC704703234F
:104F8000CFE70223CDE70223CBE700BFF8F8FFFF0E
:104F900000F8FFFF002877D038B5044690F8A1301C
:104FA000002B6CD0022384F8A1302268936923F08F
:104FB0007043936121688A696368A0680343E0686D
:104FC00003432069034313438B6121688A682F4B95
:104FD0001A408A60656920688268A16941EA0541D2
:104FE0000A4382602168CA681A40CA60E56920687D
:104FF000C268216A41EA05410A43C26021680A6920
:105000001A400A61656A20680269A16A41EA05419D
:105010000A43026121684A6913404B61E06A2168D2
:105020004B69226B42EA004213434B6194F835000E
:1050300094F836301B042168CA6A02F07F42CA62C3
:105040002168CA6A43EA002394F8340003431343F7
:10505000CB622268536B43F0040353632268536BA3
:1050600043F0020353632268936943F001039361A1
:105070000020C4F8A400012384F8A13038BD80F8D2
:10508000A030FDF705F88DE70120704700F800F02B
:1050900070477047704710B5044603689A6B12F06A
:1050A000040F03D09A6B12F0040F1BD123689A6B84
:1050B00012F0020F03D09A6B12F0020F27D123686F
:1050C0009A6B12F0010F03D09A6B12F0010F34D1DA
:1050D00023689A6B12F0080F03D09A6B12F0080F36
:1050E0003BD110BD5A6B22F004025A6303680422BC
:1050F000DA63D0F8A43043F00103C0F8A43080F89C
:10510000A120002380F8A030FFF7C2FFCEE75A6B42
:1051100022F002025A6323680222DA63D4F8A43030
:105120001343C4F8A430042384F8A130002384F886
:10513000A0302046FFF7ACFFC1E75A6B22F0010216
:105140005A6322680123D36384F8A130002384F8D2
:10515000A0302046FFF79DFFBAE75A6B22F0080205
:105160005A6323680822DA63012384F8A1300023FC
:1051700084F8A0302046FFF78DFFB2E790F8A0300A
:10518000012B27D02DE9F04194460F4606464FF0FB
:10519000010880F8A080022380F8A130342404FBA9
:1051A000020438340D460FCD0FC40FCD0FC40FCD00
:1051B0000FC42B682360624639463046FFF720FE55
:1051C0003368C3F8248086F8A180002086F8A00008
:1051D000BDE8F0810220704710B582B01B4B1A6CFD
:1051E00042F080521A641B6C03F080530193019BC0
:1051F000174A136843F480331360FDF70FFB04462E
:10520000134B5B6813F4803F08D1FDF707FB001BCD
:10521000B0F57A7FF4D9032002B010BD0C4A1368B0
:1052200043F400331360FDF7F9FA0446084B5B685A
:1052300013F4003F07D1FDF7F1FA001BB0F57A7FB8
:10524000F4D90320E8E70020E6E700BF0038024079
:10525000007000402DE9F04105460F46164698467D
:10526000069C2B689B683B4214BF01230023B3427A
:1052700012D0B4F1FF3FF4D02CB1FDF7CFFAA0EB80
:105280000800A042EDD9042385F841306B6C43F04F
:1052900001036B64012000E00020BDE8F08181641F
:1052A0007047000030B583B00446FDF7B7FA002C14
:1052B00054D0054694F84030DBB2012B50D0012386
:1052C00084F8403094F84130002B3CD021680B68C2
:1052D00023F4F853A268013A43EA02230B60A36C5B
:1052E00000932B46002220212046FFF7B3FF024601
:1052F00018BB206803681B4919406568E36843EAE6
:105300000563E5692B43256A2B430B430360206843
:105310004168154B0B402569616941EA0541A56962
:1053200029430B43436021680B6843F001030B6082
:1053300000236364012384F84130002384F8403063
:10534000104603B030BD84F840302046FCF702FF21
:1053500041F288312046FFF7A2FFB7E70122EFE7CD
:105360000222EDE72FFFFF00FEF8E0FF002800F02B
:10537000DB8170B582B00446036813F0010F29D0B9
:10538000A24B9B6803F00C03042B1AD09F4B9B6825
:1053900003F00C03082B0FD06368B3F5803F40D0B7
:1053A000002B54D1994B1A6822F480321A601A6883
:1053B00022F480221A6039E0944B5B6813F4800F6A
:1053C000EAD0924B1B6813F4003F03D06368002BB4
:1053D00000F0AC81236813F0020F75D08B4B9B68F3
:1053E00013F00C0F5ED0894B9B6803F00C03082B65
:1053F00053D0E368002B00F08A80844A136843F09E
:1054000001031360FDF70AFA0546804B1B6813F091
:10541000020F73D1FDF702FA401B0228F5D90320D1
:1054200087E17A4A136843F48033136063682BB3CF
:10543000FDF7F4F90546754B1B6813F4003FC9D11D
:10544000FDF7ECF9401B6428F5D9032071E1B3F5B1
:10545000A02F09D06D4B1A6822F480321A601A68A6
:1054600022F480221A60E1E7684B1A6842F4802235
:105470001A601A6842F480321A60D7E7FDF7CEF955
:105480000546624B1B6813F4003FA3D0FDF7C6F935
:10549000401B6428F5D903204BE15C4B5B6813F497
:1054A000800FA6D1594B1B6813F0020F04D0E3689C
:1054B000012B01D001203CE1544A136823F0F8038A
:1054C000216943EAC1031360236813F0080F46D033
:1054D000636983B34D4A536F43F001035367FDF78C
:1054E0009DF90546494B5B6F13F0020F37D1FDF76D
:1054F00095F9401B0228F5D903201AE1434A1368A5
:1055000023F0F803216943EAC1031360DCE73F4A53
:10551000136823F001031360FDF780F905463B4B48
:105520001B6813F0020FCFD0FDF778F9401B02285B
:10553000F5D90320FDE0354A536F23F0010353678B
:10554000FDF76CF90546314B5B6F13F0020F06D087
:10555000FDF764F9401B0228F5D90320E9E0236830
:1055600013F0040F7ED0294B1B6C13F0805F1ED10B
:10557000264B1A6C42F080521A641B6C03F0805365
:105580000193019B0125224B1B6813F4807F10D0EF
:10559000A368012B21D0002B3CD11C4B1A6F22F0A9
:1055A00001021A671A6F22F004021A671AE0002536
:1055B000E9E7174A136843F480731360FDF72EF987
:1055C0000646134B1B6813F4807FE1D1FDF726F9E3
:1055D000801B6428F5D90320ABE00C4A136F43F01D
:1055E00001031367A3685BB3FDF718F90646074B81
:1055F0001B6F13F0020F34D1FDF710F9801B41F23D
:1056000088339842F3D9032093E000BF003802406A
:1056100000700040052B09D0484B1A6F22F00102A0
:105620001A671A6F22F004021A67DBE7434B1A6FFE
:1056300042F004021A671A6F42F001021A67D1E7BA
:10564000FDF7ECF806463D4B1B6F13F0020F08D038
:10565000FDF7E4F8801B41F288339842F3D9032028
:1056600067E0F5B9A369002B62D0344A926802F072
:105670000C02082A5FD0022B19D0304A136823F09D
:1056800080731360FDF7CAF804462C4B1B6813F0B7
:10569000007F47D0FDF7C2F8001B0228F5D9032090
:1056A00047E0264A136C23F080531364DAE7234A59
:1056B000136823F080731360FDF7B0F805461F4BA5
:1056C0001B6813F0007F06D0FDF7A8F8401B0228E6
:1056D000F5D903202DE0E369226A1343626A43EAA5
:1056E0008213A26A5208013A43EA0243E26A43EA99
:1056F000026343F00053114A5360136843F0807310
:105700001360FDF78BF804460C4B1B6813F0007F09
:1057100006D1FDF783F8001B0228F5D9032008E025
:10572000002006E0002004E001207047012000E096
:10573000002002B070BD0120FBE700BF003802402E
:10574000264B9B6803F00C03042B44D0082B01D09C
:10575000234870472DE9F04B204B5A6802F03F0276
:105760005B6813F4800F13D01C4B5968C1F3881188
:1057700000231C48A1FB0001FAF74AFD174B5B68A8
:10578000C3F3014301335B00B0FBF3F0BDE8F08BE2
:10579000124B5B68C3F388131E4600275C0100258B
:1057A000E41A65EB0705A90141EA9461A001001B19
:1057B00061EB0501CB0043EA5073C400A01943EB31
:1057C00007018B0243EA90538402204619460023C6
:1057D000FAF71EFDD2E70348704700BF00380240C9
:1057E0000024F40040787D01002800F0A28070B50C
:1057F0000446524B1B6803F00F038B420CD24F4AF6
:10580000136823F00F030B431360136803F00F03B7
:105810008B4201D0012070BD236813F0020F17D016
:1058200013F0040F04D0464A936843F4E0539360A6
:10583000236813F0080F04D0414A936843F460438F
:1058400093603F4A936823F0F003A068034393609A
:105850000D46236813F0010F31D06368012B20D06F
:10586000022B25D0364A126812F0020F63D0344959
:105870008A6822F0030213438B60FCF7CFFF0646D1
:105880002F4B9B6803F00C036268B3EB820F16D0BA
:10589000FCF7C4FF801B41F288339842F0D9032003
:1058A000B9E7274A126812F4003FE0D10120B2E7BD
:1058B000234A126812F0007FD9D10120ABE71F4BB9
:1058C0001B6803F00F03AB420CD91C4A136823F08A
:1058D0000F032B431360136803F00F03AB4201D097
:1058E000012098E7236813F0040F06D0144A936848
:1058F00023F4E053E1680B439360236813F0080F2F
:1059000007D00F4A936823F46043216943EAC10337
:105910009360FFF715FF0A4B9B68C3F30313094A13
:10592000D35CD840084B18600020FCF787FE0020AD
:1059300071E70120704701206DE700BF003C024085
:10594000003802402474010804000020014B18684C
:10595000704700BF0400002008B5FFF7F7FF044BB5
:105960009B68C3F38223034AD35CD84008BD00BFC1
:10597000003802403474010808B5FFF7E7FF044B14
:105980009B68C3F34233034AD35CD84008BD00BFD1
:1059900000380240347401080F2303600B4B9A68EF
:1059A00002F0030242609A6802F0F00282609A6894
:1059B00002F4E052C2609B68DB0803F4E053036129
:1059C000034B1B6803F00F030B6070470038024065
:1059D000003C0240F0B583B00446036813F0010FA9
:1059E0000CD0AF4B9A6822F400029A609A68416B1F
:1059F0000A439A60436BC3B1002600E00026236887
:105A000013F4002F15D0A64AD2F88C3023F440139B
:105A1000E16B0B43C2F88C30E36BB3F5801F06D00B
:105A2000002B00F01B81002504E00126E7E701269A
:105A3000F6E70025236813F4801F0FD0984AD2F8A8
:105A40008C3023F44003216C0B43C2F88C30236C60
:105A5000B3F5800F00F0048103B90125236813F02A
:105A6000807F00D0012613F0200F40F0FB802368D8
:105A700013F0100F0CD08A4BD3F88C2022F08072D8
:105A8000C3F88C20D3F88C20A16B0A43C3F88C2078
:105A9000236813F4804F08D0814AD2F8903023F461
:105AA0004033616E0B43C2F89030236813F4004F0B
:105AB00008D07B4AD2F8903023F44023A16E0B43E8
:105AC000C2F89030236813F4803F08D0744AD2F8AB
:105AD000903023F44013E16E0B43C2F890302368FA
